:020000040800F2
:10000000FC4F002031060008D1060008D106000888
:10001000D1060008D1060008D10600080000000043
:10002000000000000000000000000000D1060008F1
:10003000D106000800000000D1060008D106000823
:10004000B5070008830700086D070008710700085E
:100050005D090008190A000829080008BD08000801
:10006000C50700080F0800083D0A000879070008C6
:100070000D070008036801499B6A1847DD03000863
:100080004388180A022805D003280CD0012811D073
:100090000020704713881A2B084B0DD81878108051
:1000A00001200B607047DBB2042BF1D8044850F8F4
:1000B0002330F3E7034BF1E71B20F0E7920B000836
:1000C000C00B0008AD0B000819B1012904D00020B5
:1000D0007047416101207047014B4361FAE700BF5F
:1000E000D505000838B50D4603680446DB688878F6
:1000F00098476B88002B0CBF0223032384F86230DF
:1001000038BD836810B504461BB1416D9847002384
:10011000A36010BD38B50D460446036801211B6A73
:1001200005F07F009847236801211B6A45F0800095
:100130009847002384F8633038BDF8B590F86330F1
:100140000446042B0F4632D003D8023B012B09D9B9
:10015000F8BD052BFCD1002380F86330BDE8F840E2
:10016000FFF7CFBFB0F85C6090F860500368AE4214
:100170002CBF2E4635463246DB69816D384698479E
:10018000A36D2B44A365B4F85C309A1B92B2A4F81B
:100190005C20002ADCD194F86330022B03D094F861
:1001A00060309D42D4D0042384F86330D0E7062326
:1001B000FAE700000529F8B50446164609D00629D5
:1001C00003D0042900F00681F8BD002380F86330D5
:1001D000836094F86330656D012B24D0062B36D0F4
:1001E00043B92368294630469B69B4F85E20984796
:1001F000082805D031462046BDE8F840FFF78ABF01
:1002000005F10803A365EB88A4F85C3095F900209C
:10021000002A2ADB4BB3B4F85E209A42EAD30123CA
:1002200084F86330D0E72368B4F85C209B693046DB
:10023000A16D9847B4F85C3082B29A42DAD814D0F3
:100240009B1AA4F85C30A36D1344A365BCE700229D
:10025000236830469B6911469847002384F8633031
:100260002046BDE8F840FFF74CBFB4F85E3005F11A
:100270000807A4F85C306368A7652BBB2B7803F0F4
:100280006303012B00F08280022B00F08480002B9E
:10029000B0D16B78092BADD801A252F823F000BF82
:1002A00045030008F5010008F5010008F501000804
:1002B000F50100084B03000817030008F5010008CA
:1002C000E3020008650300082946204604F10802FD
:1002D00098470028D2D0012806D002288AD10523C9
:1002E0009EE794F861302B7295F9003046F080005B
:1002F000002B69DAEB88B4F85C2001469A4232BFE1
:100300000323A4F85C300223204684F86330BDE860
:10031000F840FFF712BF40F2FE336A889A4206D1D6
:10032000236838461B6B9847A4F85C00DCE7236918
:10033000002B3FF45FAF284604F15C0204F1580142
:100340009847C8E700232B81CEE723681B689847AE
:10035000C30704D529462046FFF7C4FEC4E71E4B59
:10036000A360C1E7E368002B3FF444AFAF782046B9
:100370003946984701287FF43DAF002F0CBF032377
:10038000042384F8617084F86230ADE76B78002B49
:100390007FF430AFD7E76F78012F11D0032F09D04A
:1003A000002F7FF427AF236828795B6A98476F7224
:1003B000287299E7012123681B6A2879984793E7F7
:1003C000236800211B6AF8E7002223681146DB69D5
:1003D000984784E711469AE7E500000870B504469F
:1003E00016460D4661B10B1F022B1DD904EB850388
:1003F0005B6913B3324629462046BDE87040184772
:10040000022380F86230036880F8631080F861107E
:1004100090F860201B6908469847084B284663639C
:100420002368DB689847E1E702F0070300EB8303EA
:100430005B6B002BDAD09847D8E770BDB501000898
:100440000222064B06499A7300225A73054A5960E4
:10045000521A9A60044A1A60704700BF680100206F
:10046000001000080000010801000020F8B50B781A
:1004700003F06303012B11D14B780A2B0AD00B2B0D
:1004800029D18B883BBB4B882BBB504A1373FFF79A
:10049000D7FF10E04D4B1B7B0B720CE0212B1AD1C8
:1004A0004B78062B12D8DFE803F0040835587E831A
:1004B0008600474B13600120F8BDCD88802D05D8FC
:1004C000424CA37B032B08D8012B08D83F4B0A22B0
:1004D0009A730F225A730020EEE7052BF6D115B957
:1004E0000623A373E7E7A3689D4203D90823637338
:1004F0000A23F6E72A462368606808319847607344
:100500000028F5D163682B446360A3685B1BA3607C
:100510000523E6E7CB88802BD8D82C498A7B022A92
:1005200001D0092AD2D18A6812B9A0F85C20AEE7BE
:100530007F2A98BF1346856D4C68EF18661EBD4232
:1005400006D1D21A1C44A0F85C308A604C60B2E735
:1005500016F801CF05F801CBF1E71420487200200E
:100560001A4A4881537B48730B72937B0B73023B8F
:10057000082BABD801A151F823F000BFB704000845
:10058000A1050008CD040008B70400088F04000886
:10059000CD040008CD040008B7040008B704000823
:1005A0000523937387E7094B9A7B0A2A8FD16EE75D
:1005B000064B9B7B70E7054B9A7B092A86D84FF444
:1005C0001B73D340DB0781D561E700BF68010020C2
:1005D000D505000800F064B808B5FFF731FF082220
:1005E0000D4C0E4B84F860200D4A0120C4E9152201
:1005F0008022A4F85E200B4A2360E2600A4A5B680E
:1006000062600A4A22619847236801209B689847E4
:100610002046FFF72FFDFBE7040100204000000803
:100620007C000020C90000086D040008810000085B
:10063000284D04222A7628494A684FF47F239A439A
:100640004FF408331A434A604FF0C0520A612349FD
:10065000234A00230C680B6054400A60214B013B85
:10066000FDD10B6004222A732B73E04307D11E488F
:100670001E498860016881F30888436818471C4B4D
:10068000312018606822AA710122EA702868800E61
:10069000FCD302222A714CB11049114AD2430A609C
:1006A000BFF34F8F1149134ACA60FEE71249134A3C
:1006B000134B51F8040B42F8040B9342F9D8002075
:1006C000104A114B42F8040B9342FBD8FFF784FF0A
:1006D000FEE700000010024000080140FC4F00202F
:1006E000D4327F1500350C000010000800ED00E04A
:1006F000002002400400FA05D40B0008000000208E
:100700007C0000207C0000207801002030B5122100
:10071000017003214170124D124C2A6800F017F845
:100720006A6800F014F8AA6800F011F81C2334FA83
:1007300003F101F00F010929CCBF3731303102300C
:100740000170090A4170043BF1D5122030BD042329
:10075000D1B24C4004494C43120A013BF8D17047D6
:10076000E8F7FF1FC59D1C81930100010020704721
:10077000DB49803088817047D94800894005400DA9
:100780007047D84A0121CB0560B1D549D0691843DB
:10079000D06110691843106198431061BC200002B9
:1007A00008807047D069184203D09843D061002078
:1007B000DCE770470020CB4AD169090E01D308302D
:1007C0002030704710B50207920EC74B9B1830229D
:1007D0001C886405640F042C18D0802807D3C348F4
:1007E00000290CD1C248012C09D0C24807E01202EE
:1007F000C148002903D1C148012C00D0C048198844
:100800000A4003D04140000C0140198010BDB64998
:100810000207920E89588904802800D30902880FA4
:100820000138411E8041704770B5AF4BB54E00078F
:1008300003EB906306EB10641D88372010EA152047
:10084000342815D0312808D0202814D0222812D0DE
:10085000262810D0FF2040B22FE095EA1520C009CD
:1008600004D248F68F70054040351D801D882D024A
:10087000ED0B00D2083CA089850AAD02A581684035
:10088000258916EB4505824200D30246012A08D38A
:100890002C880C7005D0240A4C7002310435023AC1
:1008A000F4D81D886905490F042906D0012904D010
:1008B000954A554005EA12451D8070BD70B58A4BBA
:1008C000904E000703EB906306EB10641D887320C5
:1008D00000EA151043280CD0122808D002280BD0AB
:1008E000222809D0622807D0FF2040B223E0ED4340
:1008F0002D0AED0900D20834A2801046258816EB97
:100900004505012A09D30C7802D04E7844EA062422
:100910002C8004350231023AF3D81D886905490F4D
:10092000042908D0794A012901D1794A95435540D3
:1009300005EA12451D8070BD1AB510214FF40073F1
:1009400070480488244202D0A34200D323460830D2
:100950000139F6D1981A00D320281ABD30B50123E9
:10096000D2189A43062909D00023022906D002236F
:10097000002903D00423012900D006231B020724E9
:1009800004402343A400584D2B53002901D0802854
:100990001CD35C4D15EB8405FFF7CEFF3AD32880BE
:1009A0000020A880062902D0524B012906D1504BC5
:1009B000FFF7C2FF2ED328810020A8814A4D285B73
:1009C00058401B0C18402853002921D113003E2AFF
:1009D00004D91F23D2189A4313093E335B02494DB1
:1009E00015EB8405FFF7A8FF14D32881AB81444899
:1009F000062901D0012905D1FFF79EFF0AD32880DF
:100A0000AB803E48384D2B5B4340000C03402B53DA
:100A1000012030BD002030BD0107890E324A394B1C
:100A2000521813EB810348F68F71108888431080A9
:100A300000201880988018819881704733B4284B23
:100A4000988807220240C10A2FD2010C07D2810BDD
:100A50001AD2410B1BD2010B20D233BC7047802528
:100A6000214800EB82000488230A02D304212A4390
:100A700004E02D020521630500D30621AC4348F6AE
:100A80008F752C40048029E00721202422E019885A
:100A90000825A9431980032110241BE01988082583
:100AA000294319800221082414E007210E4A154821
:100AB00048F68F751488AC43148000240480848029
:100AC00004818481043210300139F3D500221A8266
:100AD0000021042424029888A043988039BC184738
:100AE000405C004000100240005C00401000BF8FDE
:100AF0003000FFCF2000FF8F00108FBF4030CFFFAE
:100B000000308FFF0060004000308FBF3000BF8F8B
:100B100000408FCF1E0349006E0074006500720014
:100B20006E0061006C00200066006C0061007300C4
:100B3000680000000803440046005500000026033A
:100B4000530053002D0031002000440046005500A2
:100B5000200042004F004F00540020004D004F0085
:100B6000440045000000260348006100700070004A
:100B700065006E00200049006E0074006500720080
:100B800061006300740069007600650000000403E2
:100B9000090409021B00010103C03209040000001E
:100BA000FE010204092107C80080001001120100A3
:100BB0000200000008830411DF00010102FE0100B1
:100BC0008E0B0008660B00083E0B0008340B000873
:040BD000140B0008FA
:100BD40030B5440820D21A4B1A4C1B4D5C605D6042
:100BE400023A17DB840507D102241C6158614224B0
:100BF4001C6100F01DF811D34FF001041C610D8835
:100C0400058000F015F80BD30488A5420AD1023000
:100C14000231E5E7002006E0032004E0042002E0BE
:100C2400062000E007203424DC6080241C6130BDF1
:100C3400DC686408FCD26409DC68DC60704700008E
:0C0C44000020024023016745AB89EFCD82
:0400000508000000EF
:00000001FF
